{
  "address": "0x5FbDB2315678afecb367f032d93F642f64180aa3",
  "abi": [
    {
      "anonymous": false,
      "inputs": [
        {
          "indexed": true,
          "internalType": "address",
          "name": "previousOwner",
          "type": "address"
        },
        {
          "indexed": true,
          "internalType": "address",
          "name": "newOwner",
          "type": "address"
        }
      ],
      "name": "OwnershipTransferred",
      "type": "event"
    },
    {
      "inputs": [
        {
          "internalType": "address",
          "name": "_token",
          "type": "address"
        }
      ],
      "name": "addAllowedTokens",
      "outputs": [],
      "stateMutability": "nonpayable",
      "type": "function"
    },
    {
      "inputs": [],
      "name": "owner",
      "outputs": [
        {
          "internalType": "address",
          "name": "",
          "type": "address"
        }
      ],
      "stateMutability": "view",
      "type": "function"
    },
    {
      "inputs": [],
      "name": "renounceOwnership",
      "outputs": [],
      "stateMutability": "nonpayable",
      "type": "function"
    },
    {
      "inputs": [
        {
          "internalType": "uint256",
          "name": "",
          "type": "uint256"
        }
      ],
      "name": "s_allowedTokens",
      "outputs": [
        {
          "internalType": "address",
          "name": "",
          "type": "address"
        }
      ],
      "stateMutability": "view",
      "type": "function"
    },
    {
      "inputs": [
        {
          "internalType": "uint256",
          "name": "_amount",
          "type": "uint256"
        },
        {
          "internalType": "address",
          "name": "_token",
          "type": "address"
        }
      ],
      "name": "stakeTokens",
      "outputs": [],
      "stateMutability": "nonpayable",
      "type": "function"
    },
    {
      "inputs": [
        {
          "internalType": "address",
          "name": "_token",
          "type": "address"
        }
      ],
      "name": "tokenIsAllowed",
      "outputs": [
        {
          "internalType": "bool",
          "name": "",
          "type": "bool"
        }
      ],
      "stateMutability": "view",
      "type": "function"
    },
    {
      "inputs": [
        {
          "internalType": "address",
          "name": "newOwner",
          "type": "address"
        }
      ],
      "name": "transferOwnership",
      "outputs": [],
      "stateMutability": "nonpayable",
      "type": "function"
    }
  ],
  "transactionHash": "0x3055f736a1ae367434f4acc1add61290ccbe86375234d021a2665dbc7f754d90",
  "args": [],
  "solcInputHash": "aee6ca9bbfaa8c70caa9dd4f3bba73ee",
  "bytecode": "0x608060405234801561001057600080fd5b5061002d61002261003260201b60201c565b61003a60201b60201c565b6100fe565b600033905090565b60008060009054906101000a900473ffffffffffffffffffffffffffffffffffffffff169050816000806101000a81548173ffffffffffffffffffffffffffffffffffffffff021916908373ffffffffffffffffffffffffffffffffffffffff1602179055508173ffffffffffffffffffffffffffffffffffffffff168173ffffffffffffffffffffffffffffffffffffffff167f8be0079c531659141344cd1fd0a4f28419497f9722a3daafe3b4186f6b6457e060405160405180910390a35050565b610cf88061010d6000396000f3fe608060405234801561001057600080fd5b506004361061007d5760003560e01c8063715018a61161005b578063715018a6146100ea5780638da5cb5b146100f4578063dd5b846714610112578063f2fde38b146101425761007d565b80630af8c88e146100825780630bea440d146100b2578063171e44ea146100ce575b600080fd5b61009c60048036038101906100979190610881565b61015e565b6040516100a9919061099f565b60405180910390f35b6100cc60048036038101906100c791906108aa565b61019d565b005b6100e860048036038101906100e3919061082f565b6103c4565b005b6100f26104a6565b005b6100fc61052e565b604051610109919061099f565b60405180910390f35b61012c6004803603810190610127919061082f565b610557565b60405161013991906109f1565b60405180910390f35b61015c6004803603810190610157919061082f565b61062c565b005b6001818154811061016e57600080fd5b906000526020600020016000915054906101000a900473ffffffffffffffffffffffffffffffffffffffff1681565b600082116101e0576040517f08c379a00000000000000000000000000000000000000000000000000000000081526004016101d790610a4c565b60405180910390fd5b6101e981610557565b610228576040517f08c379a000000000000000000000000000000000000000000000000000000000815260040161021f90610a6c565b60405180910390fd5b8073ffffffffffffffffffffffffffffffffffffffff166323b872dd3330856040518463ffffffff1660e01b8152600401610265939291906109ba565b602060405180830381600087803b15801561027f57600080fd5b505af1158015610293573d6000803e3d6000fd5b505050506040513d601f19601f820116820180604052508101906102b79190610858565b5081600260008373ffffffffffffffffffffffffffffffffffffffff1673ffffffffffffffffffffffffffffffffffffffff16815260200190815260200160002060003373ffffffffffffffffffffffffffffffffffffffff1673ffffffffffffffffffffffffffffffffffffffff168152602001908152602001600020546103409190610a9d565b600260008373ffffffffffffffffffffffffffffffffffffffff1673ffffffffffffffffffffffffffffffffffffffff16815260200190815260200160002060003373ffffffffffffffffffffffffffffffffffffffff1673ffffffffffffffffffffffffffffffffffffffff168152602001908152602001600020819055505050565b6103cc610724565b73ffffffffffffffffffffffffffffffffffffffff166103ea61052e565b73ffffffffffffffffffffffffffffffffffffffff1614610440576040517f08c379a000000000000000000000000000000000000000000000000000000000815260040161043790610a2c565b60405180910390fd5b6001819080600181540180825580915050600190039060005260206000200160009091909190916101000a81548173ffffffffffffffffffffffffffffffffffffffff021916908373ffffffffffffffffffffffffffffffffffffffff16021790555050565b6104ae610724565b73ffffffffffffffffffffffffffffffffffffffff166104cc61052e565b73ffffffffffffffffffffffffffffffffffffffff1614610522576040517f08c379a000000000000000000000000000000000000000000000000000000000815260040161051990610a2c565b60405180910390fd5b61052c600061072c565b565b60008060009054906101000a900473ffffffffffffffffffffffffffffffffffffffff16905090565b600080600090505b600180549050811015610621578273ffffffffffffffffffffffffffffffffffffffff16600182815481106105bd577f4e487b7100000000000000000000000000000000000000000000000000000000600052603260045260246000fd5b9060005260206000200160009054906101000a900473ffffffffffffffffffffffffffffffffffffffff1673ffffffffffffffffffffffffffffffffffffffff16141561060e576001915050610627565b808061061990610b3b565b91505061055f565b50600090505b919050565b610634610724565b73ffffffffffffffffffffffffffffffffffffffff1661065261052e565b73ffffffffffffffffffffffffffffffffffffffff16146106a8576040517f08c379a000000000000000000000000000000000000000000000000000000000815260040161069f90610a2c565b60405180910390fd5b600073ffffffffffffffffffffffffffffffffffffffff168173ffffffffffffffffffffffffffffffffffffffff161415610718576040517f08c379a000000000000000000000000000000000000000000000000000000000815260040161070f90610a0c565b60405180910390fd5b6107218161072c565b50565b600033905090565b60008060009054906101000a900473ffffffffffffffffffffffffffffffffffffffff169050816000806101000a81548173ffffffffffffffffffffffffffffffffffffffff021916908373ffffffffffffffffffffffffffffffffffffffff1602179055508173ffffffffffffffffffffffffffffffffffffffff168173ffffffffffffffffffffffffffffffffffffffff167f8be0079c531659141344cd1fd0a4f28419497f9722a3daafe3b4186f6b6457e060405160405180910390a35050565b6000813590506107ff81610c7d565b92915050565b60008151905061081481610c94565b92915050565b60008135905061082981610cab565b92915050565b60006020828403121561084157600080fd5b600061084f848285016107f0565b91505092915050565b60006020828403121561086a57600080fd5b600061087884828501610805565b91505092915050565b60006020828403121561089357600080fd5b60006108a18482850161081a565b91505092915050565b600080604083850312156108bd57600080fd5b60006108cb8582860161081a565b92505060206108dc858286016107f0565b9150509250929050565b6108ef81610af3565b82525050565b6108fe81610b05565b82525050565b6000610911602683610a8c565b915061091c82610bb3565b604082019050919050565b6000610934602083610a8c565b915061093f82610c02565b602082019050919050565b6000610957601283610a8c565b915061096282610c2b565b602082019050919050565b600061097a601383610a8c565b915061098582610c54565b602082019050919050565b61099981610b31565b82525050565b60006020820190506109b460008301846108e6565b92915050565b60006060820190506109cf60008301866108e6565b6109dc60208301856108e6565b6109e96040830184610990565b949350505050565b6000602082019050610a0660008301846108f5565b92915050565b60006020820190508181036000830152610a2581610904565b9050919050565b60006020820190508181036000830152610a4581610927565b9050919050565b60006020820190508181036000830152610a658161094a565b9050919050565b60006020820190508181036000830152610a858161096d565b9050919050565b600082825260208201905092915050565b6000610aa882610b31565b9150610ab383610b31565b9250827fffffffffffffffffffffffffffffffffffffffffffffffffffffffffffffffff03821115610ae857610ae7610b84565b5b828201905092915050565b6000610afe82610b11565b9050919050565b60008115159050919050565b600073ffffffffffffffffffffffffffffffffffffffff82169050919050565b6000819050919050565b6000610b4682610b31565b91507fffffffffffffffffffffffffffffffffffffffffffffffffffffffffffffffff821415610b7957610b78610b84565b5b600182019050919050565b7f4e487b7100000000000000000000000000000000000000000000000000000000600052601160045260246000fd5b7f4f776e61626c653a206e6577206f776e657220697320746865207a65726f206160008201527f6464726573730000000000000000000000000000000000000000000000000000602082015250565b7f4f776e61626c653a2063616c6c6572206973206e6f7420746865206f776e6572600082015250565b7f416d6f756e742063616e6e6f7420626520300000000000000000000000000000600082015250565b7f546f6b656e2069736e277420616c6c6f77656400000000000000000000000000600082015250565b610c8681610af3565b8114610c9157600080fd5b50565b610c9d81610b05565b8114610ca857600080fd5b50565b610cb481610b31565b8114610cbf57600080fd5b5056fea2646970667358221220d89d89946c224ad284d4e5f8a799f56d48c006685ab010976325aa475ea1422764736f6c63430008040033",
  "devdoc": {
    "kind": "dev",
    "methods": {
      "owner()": {
        "details": "Returns the address of the current owner."
      },
      "renounceOwnership()": {
        "details": "Leaves the contract without owner. It will not be possible to call `onlyOwner` functions anymore. Can only be called by the current owner. NOTE: Renouncing ownership will leave the contract without an owner, thereby removing any functionality that is only available to the owner."
      },
      "transferOwnership(address)": {
        "details": "Transfers ownership of the contract to a new account (`newOwner`). Can only be called by the current owner."
      }
    },
    "version": 1
  },
  "userdoc": {
    "kind": "user",
    "methods": {},
    "version": 1
  },
  "storageLayout": {
    "storage": [
      {
        "astId": 7,
        "contract": "contracts/TokenFarm.sol:TokenFarm",
        "label": "_owner",
        "offset": 0,
        "slot": "0",
        "type": "t_address"
      },
      {
        "astId": 803,
        "contract": "contracts/TokenFarm.sol:TokenFarm",
        "label": "s_allowedTokens",
        "offset": 0,
        "slot": "1",
        "type": "t_array(t_address)dyn_storage"
      },
      {
        "astId": 809,
        "contract": "contracts/TokenFarm.sol:TokenFarm",
        "label": "s_stakingBalance",
        "offset": 0,
        "slot": "2",
        "type": "t_mapping(t_address,t_mapping(t_address,t_uint256))"
      }
    ],
    "types": {
      "t_address": {
        "encoding": "inplace",
        "label": "address",
        "numberOfBytes": "20"
      },
      "t_array(t_address)dyn_storage": {
        "base": "t_address",
        "encoding": "dynamic_array",
        "label": "address[]",
        "numberOfBytes": "32"
      },
      "t_mapping(t_address,t_mapping(t_address,t_uint256))": {
        "encoding": "mapping",
        "key": "t_address",
        "label": "mapping(address => mapping(address => uint256))",
        "numberOfBytes": "32",
        "value": "t_mapping(t_address,t_uint256)"
      },
      "t_mapping(t_address,t_uint256)": {
        "encoding": "mapping",
        "key": "t_address",
        "label": "mapping(address => uint256)",
        "numberOfBytes": "32",
        "value": "t_uint256"
      },
      "t_uint256": {
        "encoding": "inplace",
        "label": "uint256",
        "numberOfBytes": "32"
      }
    }
  }
}